{
  "transactions": [
    {
      "hash": "0xc45d6a322c7451fe44ac1017c1a2d377dad1c95aa10a6030f4ece45e9fe6bea1",
      "transactionType": "CALL",
      "contractName": null,
      "contractAddress": "0x37f8b236e7ce1888c69599091e5e0e2837dcda89",
      "function": "registerAsVictim(uint256,uint256,uint256,uint256[4],uint256[8])",
      "arguments": [
        "1234",
        "9591091729611357044368889402741503908904454041819252450740038903154063606215",
        "1745226524",
        "[0, 0, 1, 1]",
        "[94788544229640640130787786141662024024997314304631676376181401289867377513, 7519301902987797216495218180403412927482584904022314677116770460604230025724, 1, 16508141217822728209246137534510351374490789504343134358571964799004026832553, 4983377436628372495865622679851180716613061483514519718485756689651869121024, 21478409900222643991193156860528545883568749708857962366619983782210805484403, 1826356712713326278208114180146582702642458447643513759139217305704576313665, 16643625062856442730825190944613815674490185195319893131632411391396168463234]"
      ],
      "transaction": {
        "from": "0xcf744968135c87b91278c0fe7a38b2459dac9733",
        "to": "0x37f8b236e7ce1888c69599091e5e0e2837dcda89",
        "gas": "0x2d640",
        "value": "0x0",
        "input": "0x39ae6dff00000000000000000000000000000000000000000000000000000000000004d215345d945a5237b9fd5be25b63923780a673127f61e2cd259765f0dc8cea81c70000000000000000000000000000000000000000000000000000000068060b1c00000000000000000000000000000000000000000000000000000000000000000000000000000000000000000000000000000000000000000000000000000000000000000000000000000000000000000000000000000000000000000000000100000000000000000000000000000000000000000000000000000000000000010035a5fe83412706dff767eae78c3a517ff7961b852de6659e4d30b0a4b7bb69109fc628aca425d99a3e9674a9c9a32c30ce38da8473a8af99f547d9650041fc0000000000000000000000000000000000000000000000000000000000000001247f46dd6a67c71f97763117bfc8396b25aea5a358495cb58c246d9de87786a90b047dde64320d8e80dffc5311f8ece59d427b48035b08cd829952412d137a002f7c596516c31761f6f4ae811b1b48cac5e72bc397fc699a5022b1f60cf4cb730409ae67857e18261929d0dd93e06306f719650f01a2b82a18d42dca199be94124cbf53c876108cea158fc2541af1c4b81cacbe7dfdd2fd6bceb5c2a3005f382",
        "nonce": "0x147",
        "chainId": "0x14a34"
      },
      "additionalContracts": [],
      "isFixedGasLimit": false
    }
  ],
  "receipts": [
    {
      "status": "0x1",
      "cumulativeGasUsed": "0x6902fd",
      "logs": [
        {
          "address": "0x37f8b236e7ce1888c69599091e5e0e2837dcda89",
          "topics": [
            "0x551dc40198cc79684bb69e4931dba4ac16e4598792ee1c0a5000aeea366d7bb6"
          ],
          "data": "0x0000000000000000000000000000000000000000000000000000000000000001",
          "blockHash": "0x1709fc6126a2a4bd8b79aa984be6a075d77449633ced4601e900dce22ef8f737",
          "blockNumber": "0x1795628",
          "transactionHash": "0xc45d6a322c7451fe44ac1017c1a2d377dad1c95aa10a6030f4ece45e9fe6bea1",
          "transactionIndex": "0x2e",
          "logIndex": "0x57",
          "removed": false
        },
        {
          "address": "0x37f8b236e7ce1888c69599091e5e0e2837dcda89",
          "topics": [
            "0x4d8fa85f6aec706b372edbbe19b5a933bc5513e8e0c05b0aa930d0731031bc8a",
            "0x000000000000000000000000cf744968135c87b91278c0fe7a38b2459dac9733"
          ],
          "data": "0x",
          "blockHash": "0x1709fc6126a2a4bd8b79aa984be6a075d77449633ced4601e900dce22ef8f737",
          "blockNumber": "0x1795628",
          "transactionHash": "0xc45d6a322c7451fe44ac1017c1a2d377dad1c95aa10a6030f4ece45e9fe6bea1",
          "transactionIndex": "0x2e",
          "logIndex": "0x58",
          "removed": false
        }
      ],
      "logsBloom": "0x00000000000000000000000000000000000000000000100000000000000000000000000000000000080000000000800000000000000000000000000000000000000000000000000000000000000000000000000000000000000000000000000000000000000000000200000000020000000000000000000000000000000000000000000000000000000000000000000000000000000000000000000000010000000000020000000000000000000000000000000000000000000100000000000000000000000000000000000000000000004000000000000000000000000000000000000000100000800000000000000000000000000000000000000000000100",
      "type": "0x2",
      "transactionHash": "0xc45d6a322c7451fe44ac1017c1a2d377dad1c95aa10a6030f4ece45e9fe6bea1",
      "transactionIndex": "0x2e",
      "blockHash": "0x1709fc6126a2a4bd8b79aa984be6a075d77449633ced4601e900dce22ef8f737",
      "blockNumber": "0x1795628",
      "gasUsed": "0x20dcc",
      "effectiveGasPrice": "0xf4490",
      "from": "0xcf744968135c87b91278c0fe7a38b2459dac9733",
      "to": "0x37f8b236e7ce1888c69599091e5e0e2837dcda89",
      "contractAddress": null,
      "l1BaseFeeScalar": "0x44d",
      "l1BlobBaseFee": "0x1",
      "l1BlobBaseFeeScalar": "0xa118b",
      "l1Fee": "0x27dd1a519",
      "l1GasPrice": "0x754566e0",
      "l1GasUsed": "0x134b"
    }
  ],
  "libraries": [],
  "pending": [],
  "returns": {},
  "timestamp": 1745226546,
  "chain": 84532,
  "commit": "a13df1e"
}